{
  "contractName": "AircraftMaintenance",
  "abi": [
    {
      "constant": true,
      "inputs": [
        {
          "name": "",
          "type": "uint256"
        },
        {
          "name": "",
          "type": "uint256"
        }
      ],
      "name": "maintenanceRecords",
      "outputs": [
        {
          "name": "aircraftName",
          "type": "string"
        },
        {
          "name": "partsExchanged",
          "type": "string"
        },
        {
          "name": "currentMaintenanceDate",
          "type": "uint256"
        },
        {
          "name": "upcomingMaintenanceDate",
          "type": "uint256"
        }
      ],
      "payable": false,
      "stateMutability": "view",
      "type": "function"
    },
    {
      "constant": true,
      "inputs": [],
      "name": "recordId",
      "outputs": [
        {
          "name": "",
          "type": "uint256"
        }
      ],
      "payable": false,
      "stateMutability": "view",
      "type": "function"
    },
    {
      "anonymous": false,
      "inputs": [
        {
          "indexed": true,
          "name": "id",
          "type": "uint256"
        },
        {
          "indexed": false,
          "name": "aircraftName",
          "type": "string"
        },
        {
          "indexed": false,
          "name": "partsExchanged",
          "type": "string"
        },
        {
          "indexed": false,
          "name": "currentMaintenanceDate",
          "type": "uint256"
        },
        {
          "indexed": false,
          "name": "upcomingMaintenanceDate",
          "type": "uint256"
        }
      ],
      "name": "MaintenanceRecordAdded",
      "type": "event"
    },
    {
      "constant": false,
      "inputs": [
        {
          "name": "_aircraftName",
          "type": "string"
        },
        {
          "name": "_partsExchanged",
          "type": "string"
        },
        {
          "name": "_currentMaintenanceDate",
          "type": "uint256"
        },
        {
          "name": "_upcomingMaintenanceDate",
          "type": "uint256"
        }
      ],
      "name": "addMaintenanceRecord",
      "outputs": [],
      "payable": false,
      "stateMutability": "nonpayable",
      "type": "function"
    },
    {
      "constant": true,
      "inputs": [
        {
          "name": "_aircraftId",
          "type": "uint256"
        }
      ],
      "name": "getMaintenanceRecords",
      "outputs": [
        {
          "components": [
            {
              "name": "aircraftName",
              "type": "string"
            },
            {
              "name": "partsExchanged",
              "type": "string"
            },
            {
              "name": "currentMaintenanceDate",
              "type": "uint256"
            },
            {
              "name": "upcomingMaintenanceDate",
              "type": "uint256"
            }
          ],
          "name": "",
          "type": "tuple[]"
        }
      ],
      "payable": false,
      "stateMutability": "view",
      "type": "function"
    },
    {
      "constant": true,
      "inputs": [
        {
          "name": "_aircraftId",
          "type": "uint256"
        },
        {
          "name": "_index",
          "type": "uint256"
        }
      ],
      "name": "getMaintenanceRecord",
      "outputs": [
        {
          "name": "",
          "type": "string"
        },
        {
          "name": "",
          "type": "string"
        },
        {
          "name": "",
          "type": "uint256"
        },
        {
          "name": "",
          "type": "uint256"
        }
      ],
      "payable": false,
      "stateMutability": "view",
      "type": "function"
    }
  ],
  "bytecode": "0x608060405234801561001057600080fd5b50610deb806100206000396000f3fe608060405260043610610067576000357c0100000000000000000000000000000000000000000000000000000000900480630c5131b81461006c5780633afd9271146100ac578063c78dcb61146100e9578063e7c4a8e114610129578063f7dfe22b14610152575b600080fd5b34801561007857600080fd5b50610093600480360361008e91908101906109ed565b61017d565b6040516100a39493929190610c28565b60405180910390f35b3480156100b857600080fd5b506100d360048036036100ce91908101906109c4565b6102f9565b6040516100e09190610bb3565b60405180910390f35b3480156100f557600080fd5b50610110600480360361010b91908101906109ed565b6104c3565b6040516101209493929190610bd5565b60405180910390f35b34801561013557600080fd5b50610150600480360361014b9190810190610931565b6106e9565b005b34801561015e57600080fd5b506101676107f3565b6040516101749190610c9b565b60405180910390f35b60006020528160005260406000208181548110151561019857fe5b906000526020600020906004020160009150915050806000018054600181600116156101000203166002900480601f0160208091040260200160405190810160405280929190818152602001828054600181600116156101000203166002900480156102455780601f1061021a57610100808354040283529160200191610245565b820191906000526020600020905b81548152906001019060200180831161022857829003601f168201915b505050505090806001018054600181600116156101000203166002900480601f0160208091040260200160405190810160405280929190818152602001828054600181600116156101000203166002900480156102e35780601f106102b8576101008083540402835291602001916102e3565b820191906000526020600020905b8154815290600101906020018083116102c657829003601f168201915b5050505050908060020154908060030154905084565b6060600080838152602001908152602001600020805480602002602001604051908101604052809291908181526020016000905b828210156104b8578382906000526020600020906004020160806040519081016040529081600082018054600181600116156101000203166002900480601f0160208091040260200160405190810160405280929190818152602001828054600181600116156101000203166002900480156103ea5780601f106103bf576101008083540402835291602001916103ea565b820191906000526020600020905b8154815290600101906020018083116103cd57829003601f168201915b50505050508152602001600182018054600181600116156101000203166002900480601f01602080910402602001604051908101604052809291908181526020018280546001816001161561010002031660029004801561048c5780601f106104615761010080835404028352916020019161048c565b820191906000526020600020905b81548152906001019060200180831161046f57829003601f168201915b50505050508152602001600282015481526020016003820154815250508152602001906001019061032d565b505050509050919050565b6060806000806000808781526020019081526020016000208054905085101515610522576040517f08c379a000000000000000000000000000000000000000000000000000000000815260040161051990610c7b565b60405180910390fd5b61052a6107f9565b6000808881526020019081526020016000208681548110151561054957fe5b906000526020600020906004020160806040519081016040529081600082018054600181600116156101000203166002900480601f0160208091040260200160405190810160405280929190818152602001828054600181600116156101000203166002900480156105fc5780601f106105d1576101008083540402835291602001916105fc565b820191906000526020600020905b8154815290600101906020018083116105df57829003601f168201915b50505050508152602001600182018054600181600116156101000203166002900480601f01602080910402602001604051908101604052809291908181526020018280546001816001161561010002031660029004801561069e5780601f106106735761010080835404028352916020019161069e565b820191906000526020600020905b81548152906001019060200180831161068157829003601f168201915b50505050508152602001600282015481526020016003820154815250509050806000015181602001518260400151836060015183935082925094509450945094505092959194509250565b600160008154809291906001019190505550600080600154815260200190815260200160002060806040519081016040528086815260200185815260200184815260200183815250908060018154018082558091505090600182039060005260206000209060040201600090919290919091506000820151816000019080519060200190610778929190610822565b506020820151816001019080519060200190610795929190610822565b5060408201518160020155606082015181600301555050506001547f06e4f5c78b76f08a02916b728a3330318ea194442c21d04b5b8aed1900041454858585856040516107e59493929190610bd5565b60405180910390a250505050565b60015481565b608060405190810160405280606081526020016060815260200160008152602001600081525090565b828054600181600116156101000203166002900490600052602060002090601f016020900481019282601f1061086357805160ff1916838001178555610891565b82800160010185558215610891579182015b82811115610890578251825591602001919060010190610875565b5b50905061089e91906108a2565b5090565b6108c491905b808211156108c05760008160009055506001016108a8565b5090565b90565b600082601f83011215156108da57600080fd5b81356108ed6108e882610ce3565b610cb6565b9150808252602083016020830185838301111561090957600080fd5b610914838284610d5e565b50505092915050565b60006109298235610d54565b905092915050565b6000806000806080858703121561094757600080fd5b600085013567ffffffffffffffff81111561096157600080fd5b61096d878288016108c7565b945050602085013567ffffffffffffffff81111561098a57600080fd5b610996878288016108c7565b93505060406109a78782880161091d565b92505060606109b88782880161091d565b91505092959194509250565b6000602082840312156109d657600080fd5b60006109e48482850161091d565b91505092915050565b60008060408385031215610a0057600080fd5b6000610a0e8582860161091d565b9250506020610a1f8582860161091d565b9150509250929050565b6000610a3482610d1c565b80845260208401935083602082028501610a4d85610d0f565b60005b84811015610a86578383038852610a68838351610b3a565b9250610a7382610d3d565b9150602088019750600181019050610a50565b508196508694505050505092915050565b6000610aa282610d32565b808452610ab6816020860160208601610d6d565b610abf81610da0565b602085010191505092915050565b6000610ad882610d27565b808452610aec816020860160208601610d6d565b610af581610da0565b602085010191505092915050565b6000601382527f496e646578206f7574206f6620626f756e6473000000000000000000000000006020830152604082019050919050565b60006080830160008301518482036000860152610b578282610acd565b91505060208301518482036020860152610b718282610acd565b9150506040830151610b866040860182610ba4565b506060830151610b996060860182610ba4565b508091505092915050565b610bad81610d4a565b82525050565b60006020820190508181036000830152610bcd8184610a29565b905092915050565b60006080820190508181036000830152610bef8187610a97565b90508181036020830152610c038186610a97565b9050610c126040830185610ba4565b610c1f6060830184610ba4565b95945050505050565b60006080820190508181036000830152610c428187610acd565b90508181036020830152610c568186610acd565b9050610c656040830185610ba4565b610c726060830184610ba4565b95945050505050565b60006020820190508181036000830152610c9481610b03565b9050919050565b6000602082019050610cb06000830184610ba4565b92915050565b6000604051905081810181811067ffffffffffffffff82111715610cd957600080fd5b8060405250919050565b600067ffffffffffffffff821115610cfa57600080fd5b601f19601f8301169050602081019050919050565b6000602082019050919050565b600081519050919050565b600081519050919050565b600081519050919050565b6000602082019050919050565b6000819050919050565b6000819050919050565b82818337600083830152505050565b60005b83811015610d8b578082015181840152602081019050610d70565b83811115610d9a576000848401525b50505050565b6000601f19601f830116905091905056fea265627a7a7230582064aaf25ce4c9273976735008903c4421b8fe4319bcf16189d76fce36453df1796c6578706572696d656e74616cf50037",
  "source": "// SPDX-License-Identifier: MIT\r\npragma solidity >=0.4.22 <0.9.0;\r\npragma experimental ABIEncoderV2;\r\ncontract AircraftMaintenance {\r\n    // Struct to store maintenance record\r\n    struct MaintenanceRecord {\r\n        string aircraftName;\r\n        string partsExchanged;\r\n        uint currentMaintenanceDate; // Unix timestamp for current maintenance date\r\n        uint upcomingMaintenanceDate; // Unix timestamp for upcoming maintenance date\r\n    }\r\n\r\n    // Mapping to store maintenance records by aircraft ID\r\n    mapping(uint => MaintenanceRecord[]) public maintenanceRecords;\r\n\r\n    // Counter for maintenance record IDs\r\n    uint public recordId;\r\n\r\n    // Event emitted when a maintenance record is added\r\n    event MaintenanceRecordAdded(uint indexed id, string aircraftName, string partsExchanged, uint currentMaintenanceDate, uint upcomingMaintenanceDate);\r\n\r\n    // Function to add a new maintenance record\r\n    function addMaintenanceRecord(string memory _aircraftName, string memory _partsExchanged, uint _currentMaintenanceDate, uint _upcomingMaintenanceDate) public {\r\n        recordId++;\r\n        maintenanceRecords[recordId].push(MaintenanceRecord(_aircraftName, _partsExchanged, _currentMaintenanceDate, _upcomingMaintenanceDate));\r\n        emit MaintenanceRecordAdded(recordId, _aircraftName, _partsExchanged, _currentMaintenanceDate, _upcomingMaintenanceDate);\r\n    }\r\n\r\n    // Function to get all maintenance records for an aircraft by ID\r\n    function getMaintenanceRecords(uint _aircraftId) public view returns (MaintenanceRecord[] memory) {\r\n        return maintenanceRecords[_aircraftId];\r\n    }\r\n    \r\n    // Function to get a specific maintenance record by index for an aircraft ID\r\n    function getMaintenanceRecord(uint _aircraftId, uint _index) public view returns (string memory, string memory, uint, uint) {\r\n        require(_index < maintenanceRecords[_aircraftId].length, \"Index out of bounds\");\r\n        MaintenanceRecord memory record = maintenanceRecords[_aircraftId][_index];\r\n        return (record.aircraftName, record.partsExchanged, record.currentMaintenanceDate, record.upcomingMaintenanceDate);\r\n    }\r\n}\r\n",
  "sourcePath": "D:\\BC project\\Yeah\\contracts\\AircraftMaintenance.sol",
  "compiler": {
    "name": "solc",
    "version": "0.5.1+commit.c8a2cb62.Emscripten.clang"
  },
  "schemaVersion": "3.4.16",
  "updatedAt": "2024-11-10T06:02:12.292Z",
  "networkType": "ethereum",
  "devdoc": {
    "methods": {}
  },
  "userdoc": {
    "methods": {}
  }
}