{
  "contractName": "AircraftMaintenance",
  "abi": [
    {
      "constant": true,
      "inputs": [
        {
          "name": "",
          "type": "uint256"
        },
        {
          "name": "",
          "type": "uint256"
        }
      ],
      "name": "maintenanceRecords",
      "outputs": [
        {
          "name": "aircraftName",
          "type": "string"
        },
        {
          "name": "engineId",
          "type": "uint256"
        },
        {
          "name": "RUL",
          "type": "uint256"
        }
      ],
      "payable": false,
      "stateMutability": "view",
      "type": "function"
    },
    {
      "constant": true,
      "inputs": [],
      "name": "recordId",
      "outputs": [
        {
          "name": "",
          "type": "uint256"
        }
      ],
      "payable": false,
      "stateMutability": "view",
      "type": "function"
    },
    {
      "anonymous": false,
      "inputs": [
        {
          "indexed": true,
          "name": "id",
          "type": "uint256"
        },
        {
          "indexed": false,
          "name": "aircraftName",
          "type": "string"
        },
        {
          "indexed": false,
          "name": "engineId",
          "type": "uint256"
        },
        {
          "indexed": false,
          "name": "sensorValues",
          "type": "uint256[8]"
        },
        {
          "indexed": false,
          "name": "RUL",
          "type": "uint256"
        }
      ],
      "name": "MaintenanceRecordAdded",
      "type": "event"
    },
    {
      "constant": false,
      "inputs": [
        {
          "name": "_aircraftName",
          "type": "string"
        },
        {
          "name": "_engineId",
          "type": "uint256"
        },
        {
          "name": "_sensorValues",
          "type": "uint256[8]"
        },
        {
          "name": "_RUL",
          "type": "uint256"
        }
      ],
      "name": "addMaintenanceRecord",
      "outputs": [],
      "payable": false,
      "stateMutability": "nonpayable",
      "type": "function"
    },
    {
      "constant": true,
      "inputs": [
        {
          "name": "_aircraftId",
          "type": "uint256"
        }
      ],
      "name": "getMaintenanceRecords",
      "outputs": [
        {
          "components": [
            {
              "name": "aircraftName",
              "type": "string"
            },
            {
              "name": "engineId",
              "type": "uint256"
            },
            {
              "name": "sensorValues",
              "type": "uint256[8]"
            },
            {
              "name": "RUL",
              "type": "uint256"
            }
          ],
          "name": "",
          "type": "tuple[]"
        }
      ],
      "payable": false,
      "stateMutability": "view",
      "type": "function"
    },
    {
      "constant": true,
      "inputs": [
        {
          "name": "_aircraftId",
          "type": "uint256"
        },
        {
          "name": "_index",
          "type": "uint256"
        }
      ],
      "name": "getMaintenanceRecord",
      "outputs": [
        {
          "name": "",
          "type": "string"
        },
        {
          "name": "",
          "type": "uint256"
        },
        {
          "name": "",
          "type": "uint256[8]"
        },
        {
          "name": "",
          "type": "uint256"
        }
      ],
      "payable": false,
      "stateMutability": "view",
      "type": "function"
    }
  ],
  "bytecode": "0x608060405234801561001057600080fd5b50610e61806100206000396000f3fe608060405260043610610067576000357c0100000000000000000000000000000000000000000000000000000000900480630c5131b81461006c5780633afd9271146100ab57806375484b00146100e8578063c78dcb6114610111578063f7dfe22b14610151575b600080fd5b34801561007857600080fd5b50610093600480360361008e9190810190610986565b61017c565b6040516100a293929190610c4d565b60405180910390f35b3480156100b757600080fd5b506100d260048036036100cd919081019061095d565b61025a565b6040516100df9190610bdd565b60405180910390f35b3480156100f457600080fd5b5061010f600480360361010a91908101906108e0565b6103c7565b005b34801561011d57600080fd5b5061013860048036036101339190810190610986565b6104cc565b6040516101489493929190610bff565b60405180910390f35b34801561015d57600080fd5b5061016661069d565b6040516101739190610cab565b60405180910390f35b60006020528160005260406000208181548110151561019757fe5b90600052602060002090600b020160009150915050806000018054600181600116156101000203166002900480601f0160208091040260200160405190810160405280929190818152602001828054600181600116156101000203166002900480156102445780601f1061021957610100808354040283529160200191610244565b820191906000526020600020905b81548152906001019060200180831161022757829003601f168201915b50505050509080600101549080600a0154905083565b6060600080838152602001908152602001600020805480602002602001604051908101604052809291908181526020016000905b828210156103bc57838290600052602060002090600b020160806040519081016040529081600082018054600181600116156101000203166002900480601f01602080910402602001604051908101604052809291908181526020018280546001816001161561010002031660029004801561034b5780601f106103205761010080835404028352916020019161034b565b820191906000526020600020905b81548152906001019060200180831161032e57829003601f168201915b50505050508152602001600182015481526020016002820160088060200260405190810160405280929190826008801561039a576020028201915b815481526020019060010190808311610386575b50505050508152602001600a820154815250508152602001906001019061028e565b505050509050919050565b6001600081548092919060010191905055506000806001548152602001908152602001600020608060405190810160405280868152602001858152602001848152602001838152509080600181540180825580915050906001820390600052602060002090600b02016000909192909190915060008201518160000190805190602001906104569291906106a3565b5060208201518160010155604082015181600201906008610478929190610723565b50606082015181600a01555050506001547f56c55850b49d6db1289e067d6ab962cc57918231cbbdbb847b1704ba3e788681858585856040516104be9493929190610bff565b60405180910390a250505050565b606060006104d8610763565b60008060008781526020019081526020016000208054905085101515610533576040517f08c379a000000000000000000000000000000000000000000000000000000000815260040161052a90610c8b565b60405180910390fd5b61053b610787565b6000808881526020019081526020016000208681548110151561055a57fe5b90600052602060002090600b020160806040519081016040529081600082018054600181600116156101000203166002900480601f01602080910402602001604051908101604052809291908181526020018280546001816001161561010002031660029004801561060d5780601f106105e25761010080835404028352916020019161060d565b820191906000526020600020905b8154815290600101906020018083116105f057829003601f168201915b50505050508152602001600182015481526020016002820160088060200260405190810160405280929190826008801561065c576020028201915b815481526020019060010190808311610648575b50505050508152602001600a820154815250509050806000015181602001518260400151836060015183935081915094509450945094505092959194509250565b60015481565b828054600181600116156101000203166002900490600052602060002090601f016020900481019282601f106106e457805160ff1916838001178555610712565b82800160010185558215610712579182015b828111156107115782518255916020019190600101906106f6565b5b50905061071f91906107b7565b5090565b8260088101928215610752579160200282015b82811115610751578251825591602001919060010190610736565b5b50905061075f91906107b7565b5090565b61010060405190810160405280600890602082028038833980820191505090505090565b6101606040519081016040528060608152602001600081526020016107aa6107dc565b8152602001600081525090565b6107d991905b808211156107d55760008160009055506001016107bd565b5090565b90565b61010060405190810160405280600890602082028038833980820191505090505090565b600082601f830112151561081357600080fd5b600861082661082182610cf3565b610cc6565b9150818385602084028201111561083c57600080fd5b60005b8381101561086c578161085288826108cc565b84526020840193506020830192505060018101905061083f565b5050505092915050565b600082601f830112151561088957600080fd5b813561089c61089782610d15565b610cc6565b915080825260208301602083018583830111156108b857600080fd5b6108c3838284610dd4565b50505092915050565b60006108d88235610dca565b905092915050565b60008060008061016085870312156108f757600080fd5b600085013567ffffffffffffffff81111561091157600080fd5b61091d87828801610876565b945050602061092e878288016108cc565b935050604061093f87828801610800565b925050610140610951878288016108cc565b91505092959194509250565b60006020828403121561096f57600080fd5b600061097d848285016108cc565b91505092915050565b6000806040838503121561099957600080fd5b60006109a7858286016108cc565b92505060206109b8858286016108cc565b9150509250929050565b60006109cd82610d62565b808452602084019350836020820285016109e685610d41565b60005b84811015610a1f578383038852610a01838351610b69565b9250610a0c82610d99565b91506020880197506001810190506109e9565b508196508694505050505092915050565b610a3981610d78565b610a4282610d58565b60005b82811015610a7457610a58858351610bce565b610a6182610db3565b9150602085019450600181019050610a45565b5050505050565b610a8481610d6d565b610a8d82610d4e565b60005b82811015610abf57610aa3858351610bce565b610aac82610da6565b9150602085019450600181019050610a90565b5050505050565b6000610ad182610d8e565b808452610ae5816020860160208601610de3565b610aee81610e16565b602085010191505092915050565b6000610b0782610d83565b808452610b1b816020860160208601610de3565b610b2481610e16565b602085010191505092915050565b6000601382527f496e646578206f7574206f6620626f756e6473000000000000000000000000006020830152604082019050919050565b6000610160830160008301518482036000860152610b878282610afc565b9150506020830151610b9c6020860182610bce565b506040830151610baf6040860182610a7b565b506060830151610bc3610140860182610bce565b508091505092915050565b610bd781610dc0565b82525050565b60006020820190508181036000830152610bf781846109c2565b905092915050565b6000610160820190508181036000830152610c1a8187610ac6565b9050610c296020830186610bce565b610c366040830185610a30565b610c44610140830184610bce565b95945050505050565b60006060820190508181036000830152610c678186610afc565b9050610c766020830185610bce565b610c836040830184610bce565b949350505050565b60006020820190508181036000830152610ca481610b32565b9050919050565b6000602082019050610cc06000830184610bce565b92915050565b6000604051905081810181811067ffffffffffffffff82111715610ce957600080fd5b8060405250919050565b600067ffffffffffffffff821115610d0a57600080fd5b602082029050919050565b600067ffffffffffffffff821115610d2c57600080fd5b601f19601f8301169050602081019050919050565b6000602082019050919050565b6000819050919050565b6000819050919050565b600081519050919050565b600060089050919050565b600060089050919050565b600081519050919050565b600081519050919050565b6000602082019050919050565b6000602082019050919050565b6000602082019050919050565b6000819050919050565b6000819050919050565b82818337600083830152505050565b60005b83811015610e01578082015181840152602081019050610de6565b83811115610e10576000848401525b50505050565b6000601f19601f830116905091905056fea265627a7a72305820e29b0beee7107946c66325ff99e2f17d44d7022970723530937832b32eaaf26f6c6578706572696d656e74616cf50037",
  "source": "// SPDX-License-Identifier: MIT\r\npragma solidity >=0.4.22 <0.9.0;\r\npragma experimental ABIEncoderV2;\r\n\r\ncontract AircraftMaintenance {\r\n    // Struct to store maintenance and sensor data\r\n    struct MaintenanceRecord {\r\n        string aircraftName;\r\n        uint engineId;\r\n        uint[8] sensorValues; // Array to store values from 8 sensors\r\n        uint RUL; // Remaining Useful Life for this record\r\n    }\r\n\r\n    // Mapping to store maintenance records by aircraft ID\r\n    mapping(uint => MaintenanceRecord[]) public maintenanceRecords;\r\n\r\n    // Counter for maintenance record IDs\r\n    uint public recordId;\r\n\r\n    // Event emitted when a maintenance record is added\r\n    event MaintenanceRecordAdded(\r\n        uint indexed id,\r\n        string aircraftName,\r\n        uint engineId,\r\n        uint[8] sensorValues,\r\n        uint RUL\r\n    );\r\n\r\n    // Function to add a new maintenance record\r\n    function addMaintenanceRecord(\r\n        string memory _aircraftName,\r\n        uint _engineId,\r\n        uint[8] memory _sensorValues,\r\n        uint _RUL\r\n    ) public {\r\n        // Increment record ID\r\n        recordId++;\r\n\r\n        // Add the record to the maintenance records\r\n        maintenanceRecords[recordId].push(\r\n            MaintenanceRecord(\r\n                _aircraftName,\r\n                _engineId,\r\n                _sensorValues,\r\n                _RUL\r\n            )\r\n        );\r\n\r\n        // Emit event when a record is added\r\n        emit MaintenanceRecordAdded(\r\n            recordId,\r\n            _aircraftName,\r\n            _engineId,\r\n            _sensorValues,\r\n            _RUL\r\n        );\r\n    }\r\n\r\n    // Function to get all maintenance records for an aircraft by ID\r\n    function getMaintenanceRecords(uint _aircraftId) public view returns (MaintenanceRecord[] memory) {\r\n        return maintenanceRecords[_aircraftId];\r\n    }\r\n\r\n    // Function to get a specific maintenance record by index for an aircraft ID\r\n    function getMaintenanceRecord(uint _aircraftId, uint _index) public view returns (\r\n        string memory,\r\n        uint,\r\n        uint[8] memory,\r\n        uint\r\n    ) {\r\n        require(_index < maintenanceRecords[_aircraftId].length, \"Index out of bounds\");\r\n        MaintenanceRecord memory record = maintenanceRecords[_aircraftId][_index];\r\n        return(\r\n            record.aircraftName,\r\n            record.engineId,\r\n            record.sensorValues,\r\n            record.RUL\r\n        );\r\n    }\r\n}\r\n",
  "sourcePath": "D:\\BC project\\Yeah\\contracts\\AircraftMaintenance.sol",
  "compiler": {
    "name": "solc",
    "version": "0.5.1+commit.c8a2cb62.Emscripten.clang"
  },
  "schemaVersion": "3.4.16",
  "updatedAt": "2024-12-08T16:55:14.516Z",
  "networkType": "ethereum",
  "devdoc": {
    "methods": {}
  },
  "userdoc": {
    "methods": {}
  }
}